{
  "_format": "hh-sol-artifact-1",
  "contractName": "VendingMachine",
  "sourceName": "contracts/VendingMachine.sol",
  "abi": [
    {
      "inputs": [],
      "stateMutability": "payable",
      "type": "constructor"
    },
    {
      "inputs": [
        {
          "internalType": "string",
          "name": "message",
          "type": "string"
        }
      ],
      "name": "VendingMachine__OverStock",
      "type": "error"
    },
    {
      "inputs": [],
      "name": "VendingMachine__TransferFailed",
      "type": "error"
    },
    {
      "anonymous": false,
      "inputs": [
        {
          "indexed": false,
          "internalType": "string",
          "name": "msg",
          "type": "string"
        },
        {
          "indexed": false,
          "internalType": "string",
          "name": "snackPurchased",
          "type": "string"
        },
        {
          "indexed": false,
          "internalType": "uint256",
          "name": "qtyPurchased",
          "type": "uint256"
        },
        {
          "indexed": false,
          "internalType": "uint256",
          "name": "snackPrice",
          "type": "uint256"
        }
      ],
      "name": "Purchased",
      "type": "event"
    },
    {
      "anonymous": false,
      "inputs": [
        {
          "indexed": false,
          "internalType": "address",
          "name": "ownerAccount",
          "type": "address"
        },
        {
          "indexed": false,
          "internalType": "uint256",
          "name": "withdrawBalance",
          "type": "uint256"
        }
      ],
      "name": "WithdrawFunds",
      "type": "event"
    },
    {
      "inputs": [],
      "name": "INITIAL_QUANTITY",
      "outputs": [
        {
          "internalType": "uint256",
          "name": "",
          "type": "uint256"
        }
      ],
      "stateMutability": "view",
      "type": "function"
    },
    {
      "inputs": [
        {
          "internalType": "address",
          "name": "",
          "type": "address"
        }
      ],
      "name": "balances",
      "outputs": [
        {
          "internalType": "uint256",
          "name": "",
          "type": "uint256"
        }
      ],
      "stateMutability": "view",
      "type": "function"
    },
    {
      "inputs": [],
      "name": "getBalance",
      "outputs": [
        {
          "internalType": "uint256",
          "name": "",
          "type": "uint256"
        }
      ],
      "stateMutability": "view",
      "type": "function"
    },
    {
      "inputs": [
        {
          "internalType": "string",
          "name": "_snack",
          "type": "string"
        }
      ],
      "name": "getSnack",
      "outputs": [
        {
          "internalType": "uint256",
          "name": "",
          "type": "uint256"
        },
        {
          "internalType": "uint256",
          "name": "",
          "type": "uint256"
        }
      ],
      "stateMutability": "view",
      "type": "function"
    },
    {
      "inputs": [
        {
          "internalType": "string",
          "name": "",
          "type": "string"
        }
      ],
      "name": "inventory",
      "outputs": [
        {
          "internalType": "uint256",
          "name": "quantity",
          "type": "uint256"
        },
        {
          "internalType": "uint256",
          "name": "price",
          "type": "uint256"
        }
      ],
      "stateMutability": "view",
      "type": "function"
    },
    {
      "inputs": [
        {
          "internalType": "string",
          "name": "_snack",
          "type": "string"
        },
        {
          "internalType": "uint256",
          "name": "_quantity",
          "type": "uint256"
        },
        {
          "internalType": "uint256",
          "name": "_snackPrice",
          "type": "uint256"
        }
      ],
      "name": "purchaseSnack",
      "outputs": [],
      "stateMutability": "payable",
      "type": "function"
    },
    {
      "inputs": [],
      "name": "withdraw",
      "outputs": [],
      "stateMutability": "nonpayable",
      "type": "function"
    },
    {
      "constant": false,
      "inputs": [],
      "name": "restock",
      "outputs": [],
      "payable": false,
      "stateMutability": "nonpayable",
      "type": "function"
    },
    {
      "stateMutability": "payable",
      "type": "receive"
    }
  ],
  "bytecode": "0x60a0604052476000553373ffffffffffffffffffffffffffffffffffffffff1660808173ffffffffffffffffffffffffffffffffffffffff168152505060405180604001604052806014815260200166038d7ea4c6800081525060026040516200006990620002ce565b90815260200160405180910390206000820151816000015560208201518160010155905050600180600181540180825580915050600190039060005260206000200160006040518060400160405280600581526020017f636869707300000000000000000000000000000000000000000000000000000081525090919091509081620000f691906200055f565b5060405180604001604052806014815260200166071afd498d00008152506002604051620001249062000696565b90815260200160405180910390206000820151816000015560208201518160010155905050600180600181540180825580915050600190039060005260206000200160006040518060400160405280600681526020017f6472696e6b73000000000000000000000000000000000000000000000000000081525090919091509081620001b191906200055f565b5060405180604001604052806014815260200166038d7ea4c680008152506002604051620001df90620006fd565b90815260200160405180910390206000820151816000015560208201518160010155905050600180600181540180825580915050600190039060005260206000200160006040518060400160405280600781526020017f636f6f6b69657300000000000000000000000000000000000000000000000000815250909190915090816200026c91906200055f565b5062000714565b600081905092915050565b7f6368697073000000000000000000000000000000000000000000000000000000600082015250565b6000620002b660058362000273565b9150620002c3826200027e565b600582019050919050565b6000620002db82620002a7565b9150819050919050565b600081519050919050565b7f4e487b7100000000000000000000000000000000000000000000000000000000600052604160045260246000fd5b7f4e487b7100000000000000000000000000000000000000000000000000000000600052602260045260246000fd5b600060028204905060018216806200036757607f821691505b6020821081036200037d576200037c6200031f565b5b50919050565b60008190508160005260206000209050919050565b60006020601f8301049050919050565b600082821b905092915050565b600060088302620003e77fffffffffffffffffffffffffffffffffffffffffffffffffffffffffffffffff82620003a8565b620003f38683620003a8565b95508019841693508086168417925050509392505050565b6000819050919050565b6000819050919050565b6000620004406200043a62000434846200040b565b62000415565b6200040b565b9050919050565b6000819050919050565b6200045c836200041f565b620004746200046b8262000447565b848454620003b5565b825550505050565b600090565b6200048b6200047c565b6200049881848462000451565b505050565b5b81811015620004c057620004b460008262000481565b6001810190506200049e565b5050565b601f8211156200050f57620004d98162000383565b620004e48462000398565b81016020851015620004f4578190505b6200050c620005038562000398565b8301826200049d565b50505b505050565b600082821c905092915050565b6000620005346000198460080262000514565b1980831691505092915050565b60006200054f838362000521565b9150826002028217905092915050565b6200056a82620002e5565b67ffffffffffffffff811115620005865762000585620002f0565b5b6200059282546200034e565b6200059f828285620004c4565b600060209050601f831160018114620005d75760008415620005c2578287015190505b620005ce858262000541565b8655506200063e565b601f198416620005e78662000383565b60005b828110156200061157848901518255600182019150602085019450602081019050620005ea565b868310156200063157848901516200062d601f89168262000521565b8355505b6001600288020188555050505b505050505050565b7f6472696e6b730000000000000000000000000000000000000000000000000000600082015250565b60006200067e60068362000273565b91506200068b8262000646565b600682019050919050565b6000620006a3826200066f565b9150819050919050565b7f636f6f6b69657300000000000000000000000000000000000000000000000000600082015250565b6000620006e560078362000273565b9150620006f282620006ad565b600782019050919050565b60006200070a82620006d6565b9150819050919050565b6080516110b16200073e600039600081816102780152818161030b015261039301526110b16000f3fe6080604052600436106100745760003560e01c80634a28cd9a1161004e5780634a28cd9a14610154578063b273296714610192578063ca4b9aee146101bd578063ec2b33b1146101fb576100d0565b806312065fe0146100d557806327e235e3146101005780633ccfd60b1461013d576100d0565b366100d05734600360003373ffffffffffffffffffffffffffffffffffffffff1673ffffffffffffffffffffffffffffffffffffffff16815260200190815260200160002060008282546100c8919061085c565b925050819055005b600080fd5b3480156100e157600080fd5b506100ea610217565b6040516100f7919061089f565b60405180910390f35b34801561010c57600080fd5b506101276004803603810190610122919061092c565b61025e565b604051610134919061089f565b60405180910390f35b34801561014957600080fd5b50610152610276565b005b34801561016057600080fd5b5061017b60048036038101906101769190610a9f565b6103cc565b604051610189929190610ae8565b60405180910390f35b34801561019e57600080fd5b506101a7610405565b6040516101b4919061089f565b60405180910390f35b3480156101c957600080fd5b506101e460048036038101906101df9190610a9f565b61040a565b6040516101f2929190610ae8565b60405180910390f35b61021560048036038101906102109190610b3d565b610444565b005b60006102586040518060400160405280600881526020017f6c696e652031313500000000000000000000000000000000000000000000000081525047610695565b47905090565b60036020528060005260406000206000915090505481565b7f000000000000000000000000000000000000000000000000000000000000000073ffffffffffffffffffffffffffffffffffffffff163373ffffffffffffffffffffffffffffffffffffffff1614610304576040517f08c379a00000000000000000000000000000000000000000000000000000000081526004016102fb90610c09565b60405180910390fd5b60004790507f000000000000000000000000000000000000000000000000000000000000000073ffffffffffffffffffffffffffffffffffffffff166108fc829081150290604051600060405180830381858888f1935050505015801561036f573d6000803e3d6000fd5b507f21901fa892c430ea8bd38b9390225ac8e67eac75ee10ffba16feefc539a288f97f0000000000000000000000000000000000000000000000000000000000000000826040516103c1929190610c38565b60405180910390a150565b60008060006002846040516103e19190610cd2565b90815260200160405180910390209050806000015481600101549250925050915091565b601481565b6002818051602081018201805184825260208301602085012081835280955050505050506000915090508060000154908060010154905082565b60006002846040516104569190610cd2565b9081526020016040518091039020905060008160010154116104ad576040517f08c379a00000000000000000000000000000000000000000000000000000000081526004016104a490610d35565b60405180910390fd5b80600101543410156104f4576040517f08c379a00000000000000000000000000000000000000000000000000000000081526004016104eb90610dc7565b60405180910390fd5b60008311610537576040517f08c379a000000000000000000000000000000000000000000000000000000000815260040161052e90610e33565b60405180910390fd5b828160000154101561057e576040517f08c379a000000000000000000000000000000000000000000000000000000000815260040161057590610e9f565b60405180910390fd5b828160000160008282546105929190610ebf565b9250508190555081600360003373ffffffffffffffffffffffffffffffffffffffff1673ffffffffffffffffffffffffffffffffffffffff16815260200190815260200160002060008282546105e8919061085c565b925050819055508060010154600080828254610604919061085c565b925050819055507f8dbf35de07e27149724419138ee53f84dd21d6a26da9fcea5afa4f14062885ab84848460405161063e93929190610f78565b60405180910390a161068f6040518060400160405280600781526020017f6c696e65203834000000000000000000000000000000000000000000000000008152508583600001548460010154610731565b50505050565b61072d82826040516024016106ab929190610fc9565b6040516020818303038152906040527fb60e72cc000000000000000000000000000000000000000000000000000000007bffffffffffffffffffffffffffffffffffffffffffffffffffffffff19166020820180517bffffffffffffffffffffffffffffffffffffffffffffffffffffffff83818316178352505050506107d3565b5050565b6107cd8484848460405160240161074b9493929190610ff9565b6040516020818303038152906040527ff45d7d2c000000000000000000000000000000000000000000000000000000007bffffffffffffffffffffffffffffffffffffffffffffffffffffffff19166020820180517bffffffffffffffffffffffffffffffffffffffffffffffffffffffff83818316178352505050506107d3565b50505050565b6107ea816107e26107ed61080e565b63ffffffff16565b50565b60006a636f6e736f6c652e6c6f679050600080835160208501845afa505050565b610819819050919050565b61082161104c565b565b6000819050919050565b7f4e487b7100000000000000000000000000000000000000000000000000000000600052601160045260246000fd5b600061086782610823565b915061087283610823565b925082820190508082111561088a5761088961082d565b5b92915050565b61089981610823565b82525050565b60006020820190506108b46000830184610890565b92915050565b6000604051905090565b600080fd5b600080fd5b600073ffffffffffffffffffffffffffffffffffffffff82169050919050565b60006108f9826108ce565b9050919050565b610909816108ee565b811461091457600080fd5b50565b60008135905061092681610900565b92915050565b600060208284031215610942576109416108c4565b5b600061095084828501610917565b91505092915050565b600080fd5b600080fd5b6000601f19601f8301169050919050565b7f4e487b7100000000000000000000000000000000000000000000000000000000600052604160045260246000fd5b6109ac82610963565b810181811067ffffffffffffffff821117156109cb576109ca610974565b5b80604052505050565b60006109de6108ba565b90506109ea82826109a3565b919050565b600067ffffffffffffffff821115610a0a57610a09610974565b5b610a1382610963565b9050602081019050919050565b82818337600083830152505050565b6000610a42610a3d846109ef565b6109d4565b905082815260208101848484011115610a5e57610a5d61095e565b5b610a69848285610a20565b509392505050565b600082601f830112610a8657610a85610959565b5b8135610a96848260208601610a2f565b91505092915050565b600060208284031215610ab557610ab46108c4565b5b600082013567ffffffffffffffff811115610ad357610ad26108c9565b5b610adf84828501610a71565b91505092915050565b6000604082019050610afd6000830185610890565b610b0a6020830184610890565b9392505050565b610b1a81610823565b8114610b2557600080fd5b50565b600081359050610b3781610b11565b92915050565b600080600060608486031215610b5657610b556108c4565b5b600084013567ffffffffffffffff811115610b7457610b736108c9565b5b610b8086828701610a71565b9350506020610b9186828701610b28565b9250506040610ba286828701610b28565b9150509250925092565b600082825260208201905092915050565b7f4e6f7420636f6e7472616374206f776e65720000000000000000000000000000600082015250565b6000610bf3601283610bac565b9150610bfe82610bbd565b602082019050919050565b60006020820190508181036000830152610c2281610be6565b9050919050565b610c32816108ee565b82525050565b6000604082019050610c4d6000830185610c29565b610c5a6020830184610890565b9392505050565b600081519050919050565b600081905092915050565b60005b83811015610c95578082015181840152602081019050610c7a565b60008484015250505050565b6000610cac82610c61565b610cb68185610c6c565b9350610cc6818560208601610c77565b80840191505092915050565b6000610cde8284610ca1565b915081905092915050565b7f496e76616c696420736e61636b2073656c656374656400000000000000000000600082015250565b6000610d1f601683610bac565b9150610d2a82610ce9565b602082019050919050565b60006020820190508181036000830152610d4e81610d12565b9050919050565b7f4465636c696e65642120496e73756666696369656e74207061796d656e74206160008201527f6d6f756e742e0000000000000000000000000000000000000000000000000000602082015250565b6000610db1602683610bac565b9150610dbc82610d55565b604082019050919050565b60006020820190508181036000830152610de081610da4565b9050919050565b7f43686f6f7365207175616e7469747920746f2070757263686173650000000000600082015250565b6000610e1d601b83610bac565b9150610e2882610de7565b602082019050919050565b60006020820190508181036000830152610e4c81610e10565b9050919050565b7f576527766520736f6c64206f7574206f662074686973206974656d2100000000600082015250565b6000610e89601c83610bac565b9150610e9482610e53565b602082019050919050565b60006020820190508181036000830152610eb881610e7c565b9050919050565b6000610eca82610823565b9150610ed583610823565b9250828203905081811115610eed57610eec61082d565b5b92915050565b7f5468616e6b20796f7520666f7220796f7572207075726368617365206f662000600082015250565b6000610f29601f83610bac565b9150610f3482610ef3565b602082019050919050565b6000610f4a82610c61565b610f548185610bac565b9350610f64818560208601610c77565b610f6d81610963565b840191505092915050565b60006080820190508181036000830152610f9181610f1c565b90508181036020830152610fa58186610f3f565b9050610fb46040830185610890565b610fc16060830184610890565b949350505050565b60006040820190508181036000830152610fe38185610f3f565b9050610ff26020830184610890565b9392505050565b600060808201905081810360008301526110138187610f3f565b905081810360208301526110278186610f3f565b90506110366040830185610890565b6110436060830184610890565b95945050505050565b7f4e487b7100000000000000000000000000000000000000000000000000000000600052605160045260246000fdfea26469706673582212204b8a449149f76aab9f2974e9f3be21abc245851a1849027ce9805b5150efddc564736f6c63430008120033",
  "linkReferences": {},
  "deployedLinkReferences": {}
}